:020000042000DA
:10000000554F5343000101000300000000000000B1
:100010004F000020F1020020C1030020C303002094
:100020004300002045000020C50300200000000020
:1000300000000000000000000000000000000000C0
:100040007047704770477047704770477047104B54
:10005000104A2DE9F041884607460021934202D01C
:1000600003F8011FFAE70C4B0C4CE41AA41000250E
:100070001E46A54205D056F8253003B198470135F4
:10008000F7E74146384600F00BF8BDE8F08100BFC5
:10009000E7030020FF030020400000204000002074
:1000A000054B00221A605A609A60DA6000225A8278
:1000B0009A821A82704700BFE8030020042800F2E9
:1000C000A780DFE800F0032C5F97A600FCEEC07A63
:1000D000514AF8EE677A30EE670ADFED507A60EE4B
:1000E000277ABCEEE77A17EE101A01F07F0302EBD5
:1000F00083000133B8EE477A03F07F0302EB8303FA
:1001000090ED000A77EEC77A93ED007A37EE407AE9
:100110007F29A7EE870A7ED9B1EE400A7047FCEE30
:10012000C07A3F49F8EE677A30EE670ADFED3B7A36
:1001300060EE277ABCEEE77A17EE103A7F2B87BF86
:1001400003F07F02C2F180005A1C184688BFC2F13A
:100150007F02B8EE477A01EB800001EB820290ED5E
:10016000000A77EEC77A92ED007A37EE407A98BFB0
:10017000F7EE006AA7EE870A88BFFFEE006A20EE5E
:10018000260A7047FCEEC07AF8EE677A30EE670A0E
:10019000DFED227A60EE277ABCEEE77A17EE103AAE
:1001A000802B04D903F07F02C2F1800209E07E2B8C
:1001B00003D8581C17EE102A08E07F2B03D017EE47
:1001C000102A501E02E017EE102A802007EE103A87
:1001D0001449B8EE477A01EB820201EB800192EDFF
:1001E000000A77EEC77A91ED007A37EE407AA7EEF3
:1001F000870A7047F6EE007AB4EEE70ADFED0A7A76
:100200009FED0A0AF1EE10FA98BFB0EE670A704748
:1002100070479FED070A7047DC2B01080000804300
:10022000B81D010870010108CDCC4C3FCDCC4CBFAE
:10023000000000002C4B9FED2D4AD3ED025A93EDA8
:10024000036A2DE9F041B3F812809E8AF0EE403A3D
:10025000054600EB81071C46F7EE004ABD423DD043
:10026000F5EEC05AF1EE10FA8ABFBCEEE50A34EEA4
:10027000E50AB8EE400A404688BF35EEC00AFFF7EF
:100280001DFFB5EEC06AF1EE10FA73EEA55AB0EE9E
:10029000405A88BFBCEEC60AFCEEE57A88BFB8EECD
:1002A000400AF8EE677A94BF34EEC60A36EE400A8A
:1002B000304675EEE75AFFF701FF36EE206A35EE5D
:1002C000000AFCEEC67A20EE040AF8EE677ABDEE6C
:1002D000C00A36EE676AA5EC010ABFE7C4ED025A10
:1002E00084ED036ABDE8F081E80300200000004FC0
:1002F00030B40C4681882D4DDFED2D7A9FED2D6AAF
:100300000812C3B2C9B207EE101A591C9628C9B216
:10031000C8BF9720962988BF9721B8EEC77A05EB0A
:10032000800005EB810190ED000A234827EE277A33
:10033000D1ED007A017C77EEC07A0B44A7EE270A54
:10034000DBB2DFED1E7AB4EEE70AF1EE10FAA8BFD9
:10035000B0EE670A962B98BF194603F10103DBB292
:1003600088BF9721962B88BF972305EB810105EB6A
:100370008303D1ED000AD3ED006A76EEE06A20EE49
:10038000060AE6EE870A114680ED000AF4EEE70A57
:10039000F1EE10FAB8BFF0EE607A67EE860AC0EDB3
:1003A000010A204630BCFFF745BF00BF00F100083E
:1003B0008180803B3EC3AE37E803002049FFB8464A
:1003C00070477047012806D002D3022806D0704734
:1003D000044B19827047034B59827047014B998235
:0803E000704700BFE803002094
:040000052000004F88
:00000001FF
